:020000040800F2
:1000000000500020051F0008A11E0008A31E0008C4
:10001000A51E0008A71E0008A91E00080000000079
:100020000000000000000000000000002112000895
:10003000AB1E000800000000B1120008F512000815
:100040004D1F00084D1F00084D1F00084D1F0008E0
:100050004D1F00084D1F00084D1F00084D1F0008D0
:100060004D1F00084D1F00084D1F00084D1F0008C0
:100070004D1F00084D1F00084D1F00084D1F0008B0
:100080004D1F00084D1F00084D1F00084D1F0008A0
:100090004D1F00084D1F00084D1F00084D1F000890
:1000A0004D1F0008AD1E00084D1F00084D1F000821
:1000B0004D1F00084D1F00084D1F00084D1F000870
:1000C0004D1F00084D1F00084D1F00084D1F000860
:1000D0004D1F00084D1F00084D1F00084D1F000850
:1000E0004D1F00084D1F00084D1F000800000000B4
:1000F0000000000000000000000000000000000000
:0C01000000000000000000005FF808F1A3
:1001100010B5054C237833B9044B13B10448AFF341
:1001200000800123237010BD0C000020000000009F
:10013000A81F000808B5034B1BB103490348AFF3E0
:10014000008008BD0000000010000020A81F00086B
:10015000074A08B51368032043F01003136000F04A
:100160001BF8002001F060FE01F018FE002008BD21
:1001700000200240034A044B11681B780B441360B3
:10018000704700BF740D002000000020014B18686C
:10019000704700BF740D0020074A0002D36800F4C6
:1001A000E06023F4E0631B041B0C43F0BF6343F4E3
:1001B00000330343D360704700ED00E0174B30B5C8
:1001C000DC68C4F30224C4F10703251D042B28BFF7
:1001D0000423062D4FF0010598BF002405FA03F310
:1001E00003F1FF3388BF033C1940A14005FA04F432
:1001F000013C2240002842EA01024FEA0212AFBF4E
:1002000000F16040064B00F00F00D2B2A5BFD2B2A1
:1002100000F561401A5480F8002330BD00ED00E085
:1002200014ED00E00123420900F01F0003FA00F082
:10023000014B43F82200704700E100E02DE9F74F41
:1002400000221646654BDFF8A4E1DFF8A4C14FF0A9
:1002500001080C6808FA06F808EA0404A0457FD1F2
:100260004D68122D00F0AF8000F28880022D00F062
:10027000A7807CD8002D00F08E80012D00F09E809C
:100280004FF00F09FF2C93BF824606F18045083DD1
:10029000D0F800B092BFB500D0F804B0AD0009FAB4
:1002A00005F82BEA080802FA05F588BF00F1040AF0
:1002B00048EA0505CAF80050D1F804A01AF0805F9A
:1002C0004ED0474D464FAD6926F0030845F0010575
:1002D000BD61BD6908F1804805F00105019508F58B
:1002E000803806F0030B019D4FEA8B0BD8F80850BD
:1002F00009FA0BF925EA09093A4DA84268D005F533
:100300008065A84266D005F58065A84264D005F5F1
:100310008065A8420CBF0325042505FA0BF545EAC4
:100320000905C8F808501D681AF4803F14BF25431A
:10033000A5431D605D681AF4003F14BF2543A54323
:100340005D609D681AF4801F14BF2543A5439D601E
:10035000DD681AF4001F14BF2C4325EA0404DC6096
:100360000136102E7FF473AF03B0BDE8F08F032D7C
:1003700022D0112D84D1CA68043281E71A4FBD42C0
:1003800009D012D8DFF86C904D4504D009F58039BA
:100390004D457FF475AF8A68C2B1012A0CBFC0F821
:1003A0001080C0F8148008226AE77545F3D06545CF
:1003B000F1D0DFF84490EBE7002261E7CA685FE71D
:1003C000CA6808325CE7CA680C3259E7042257E76A
:1003D0000025A2E70125A0E702259EE700040140D1
:1003E0000010024000080140000021100000311000
:1003F0000000321000001110000022100AB101614B
:1004000070470904FBE700000122014B1A607047A6
:1004100020000E4203682DE9F341DB07054610D4A6
:100420002B689F075ED42B68190700F195802B6815
:100430005A0700F1BF80EA69002A40F02D810020B0
:1004400014E0904C636803F00C03042B07D063683E
:1004500003F00C03082B0CD16368DE0309D5236875
:100460009C03DDD56B68002BDAD1012002B0BDE81A
:10047000F0816B68B3F5803F10D1236843F480337B
:100480002360FFF783FE064623689803C8D4FFF76E
:100490007DFE801B6428F7D90320E7E79BB923681A
:1004A00023F480332360236823F480232360FFF741
:1004B0006DFE064623689903B2D5FFF767FE801BE1
:1004C0006428F7D9E8E7B3F5A02F236803D143F4F4
:1004D00080232360D1E723F480332360236823F44F
:1004E0008023CDE7674C636813F00C0F07D0636877
:1004F00003F00C03082B10D16368DA030DD42368D2
:100500009B0702D52B69012BAFD123686A6923F0C1
:10051000F80343EAC203236085E72A695A4B6AB1AC
:1005200001221A60FFF732FE064623689F07ECD4CB
:10053000FFF72CFE801B0228F7D9ADE71A60FFF702
:1005400025FE0646236898077FF56DAFFFF71EFE70
:10055000801B0228F6D99FE7AA694A4C4B4BDAB1B7
:1005600001221A60FFF712FE0646636A9B070DD54B
:100570004FF4FA52464B1B68B3FBF2F3019300BFF2
:10058000019B5A1E0192002BF9D150E7FFF7FEFDA7
:10059000801B0228E9D97FE71A60FFF7F7FD0646BE
:1005A000636A9F077FF543AFFFF7F0FD801B0228CA
:1005B000F6D971E7334CE369D80024D40127E36905
:1005C00043F08053E361E36903F080530093009BA1
:1005D000304E3368D90518D5EB68012B26D1236A34
:1005E00043F001032362FFF7D1FD41F288368046D4
:1005F000236A9B073FD5002F3FF41DAFE36923F02B
:100600008053E36117E70027E2E7336843F4807320
:100610003360FFF7BBFD80463368DA05DCD4FFF7B3
:10062000B5FDA0EB08006428F6D935E7ABB9236A1D
:1006300041F2883823F001032362236A23F0040384
:100640002362FFF7A3FD0646236A9807D3D5FFF779
:100650009DFD801B4045F7D91EE7052B236A03D17A
:1006600043F004032362BAE723F001032362236A01
:1006700023F00403B6E7FFF789FDA0EB0800B042C2
:10068000B6D909E70010024000004242800442420D
:100690000800002000700040224C636803F00C0347
:1006A000082B3FF4E2AE00231F4E022A33602BD109
:1006B000FFF76CFD0746236899011FD42B6AB3F539
:1006C000803F05D16268A96822F400320A43626063
:1006D000696A62680B4322F4741213436360012356
:1006E0003360FFF753FD054623689A013FF5A7AE37
:1006F000FFF74CFD401B0228F6D9CDE6FFF746FD7B
:10070000C01B0228D7D9C7E6FFF740FD054623687E
:100710009B017FF594AEFFF739FD401B0228F6D907
:10072000BAE600BF001002406000424230B5194BEB
:1007300087B002AC03F110052246186859680833E7
:1007400003C2AB421446F7D101238DF804300223D3
:1007500011498DF805304B6803F00C02082A17D1B7
:10076000C3F3834206A80244DB0312F8102C0CD515
:100770004B680A48C3F34043504306AA134413F896
:10078000143CB0FBF3F007B030BD05485043FAE726
:100790000248F8E7C01F00080010024000127A006B
:1007A00000093D00544A2DE9F0411368054603F065
:1007B00007038B420E462AD329688C0734D4CA0714
:1007C00047D44D4A136803F007039E42C0F082806D
:1007D0002A684A4C12F0040F40F08780130706D5B0
:1007E00063682A6923F4605343EAC2036360FFF736
:1007F0009DFF6368424AC3F30313D35CD840414B67
:100800001860002001F010FB0020BDE8F0811368A3
:1008100023F007030B431360136803F007039942A7
:10082000CAD00120BDE8F081344B11F0040F1EBF87
:100830005A6842F4E0625A60080742BF5A6842F4BC
:1008400060525A605A68A86822F0F00202435A6067
:10085000B5E76A68294C012A23681CD113F4003FCC
:10086000DFD0636841F2883823F0030313436360E9
:10087000FFF78CFC6B680746012B14D1636803F00B
:100880000C03042B9DD0FFF781FCC01B4045F5D91C
:100890000320BDE8F081022A02D113F0007FDFE7D8
:1008A00013F0020FDCE7022B0FD1636803F00C0397
:1008B000082B86D0FFF76AFCC01B4045F5D9E7E757
:1008C000FFF764FCC01B4045E2D8636813F00C0FCF
:1008D000F6D176E7136823F00703334313601368F8
:1008E00003F007039E429CD172E76368E96823F432
:1008F000E0630B43636071E7002002400010024098
:100900000D20000808000020044B054A5B68C3F373
:10091000C223D35C034A1068D840704700100240DD
:100920001D200008080000200F2303600B4B5A68AD
:1009300002F0030242605A6802F0F00282605A68D4
:1009400002F4E062C2605B68DB0803F4E063036109
:10095000034B1B6803F007030B6070470010024055
:100960000020024003682DE9F341D907054620D550
:10097000354CE369DA0032D40127E36943F0805350
:10098000E361E36903F080530193019B2F4E3368C9
:10099000DB0526D5236A13F4407336D1236A6A68CF
:1009A00023F44073134323621FB1E36923F08053A0
:1009B000E3612868830706D5234AA968536823F4AE
:1009C00040430B43536010F010001BD01E4AE968EF
:1009D0005368002023F480030B43536012E0002788
:1009E000D4E7336843F480733360FFF7CFFB80466E
:1009F0003368D805CED4FFF7C9FBA0EB0800642804
:100A0000F6D9032002B0BDE8F0816A6802F44072B2
:100A10009342C3D001200E4A236A1060002023F4C1
:100A2000407110602162D907B8D5FFF7AFFB41F2E2
:100A300088380646236A9A07B0D4FFF7A7FB801BC5
:100A40004045F7D9DDE700BF0010024000700040CC
:100A50004004424270B50446354B86B002AD03F106
:100A600010062A4618685968083303C2B34215466F
:100A7000F7D101238DF8043002239C428DF8053014
:100A800047D0102C17D0012C4FD140F20231294A07
:100A9000136A1940B1F5817F44D003F44073B3F574
:100AA000007F2DD149F64040536A13F0020F08BF72
:100AB000002006B070BD1F4B5968186810F0807098
:100AC000F7D0C1F3834206A8024412F8100CCA03FF
:100AD00041BF5A6806A9C2F34042521844BF12F8F7
:100AE000141C154A5B684CBFB2FBF1F2134A5B025F
:100AF00002FB00F0DDD403234000B0FBF3F0D8E7A5
:100B0000B3F5407F11D113684FF2244013F4003F36
:100B1000CDE7FFF7F9FE074B5B68C3F38133013381
:100B20005B00EAE74FF40040C3E70020C1E700BFE5
:100B3000D01F00080010024000127A0000093D009A
:100B4000036830B59A69D869996995B28CB2A542A3
:100B50001DBFD86980B240EA014080B208BF40EAB8
:100B6000024030BD0368186A5B6A9BB243EA0040EA
:100B700070470A22030900F00F0002FB0300C0B215
:100B80007047022970B54FF0170300F5FA654FF072
:100B900009061AD84B4300F2CF74B3FBF6F04FF4BA
:100BA000C873B4FBF3F304322A44104400EB9400FE
:100BB00018446423B4FBF3F4001B0723B0FBF3F3E6
:100BC000C3EBC303C01AC0B270BD03FB01F0B0FB9E
:100BD000F6F002322A444FF4C87310446422B5FB85
:100BE000F3F3B5FBF2F200EB95001844801AE4E74A
:100BF00038B50446FFF7CAFA054623685A689206D4
:100C000005D55A68002042F010025A6038BDFFF73F
:100C1000BDFA401BB0F57A7FEFD9032038BD0268DA
:100C200038B55368044623F010035360FFF7AEFA5B
:100C3000054623685B689B0601D5002038BDFFF799
:100C4000A5FA401BB0F57A7FF3D9032038BD38B53B
:100C500005460C46FFF7CCFF58B92B68220CA4B20E
:100C60009A612846DC61FFF7DAFF003018BF0120E7
:100C700038BD012038BD38B505460C46FFF7B8FF32
:100C800058B92B68220CA4B21A6228465C62FFF79E
:100C9000C6FF003018BF012038BD012038BD70B537
:100CA0000446E0B1D9B1037C0226012B46D00123D2
:100CB0004674037408784E78897892B93C254FF4CD
:100CC0006163754303FB0050451829462046FFF732
:100CD000BEFF0646B0B104236374002323740126CB
:100CE0002CE0FFF746FF05463046FFF742FF3C2366
:100CF00058434FF4616303FB05050846FFF739FFCE
:100D00000544E2E722682046536823F00503536058
:100D1000FFF728FF431C0DD085420BD900F5A83101
:100D200001F5C0712046FFF7A6FF18B10423267411
:100D30006374D4E70123637400232374304670BDC9
:100D400070B50D46044658B351B3037C0220012B05
:100D500027D0012360742374C8781ABBE0734B78E2
:100D600063738B78A373A27B617BE07BFFF709FF42
:100D7000207328702046FFF7E3FE1C4B984230D9C1
:100D8000A3F60F63B0FBF3F503FB150520462946D8
:100D9000FFF75DFF064688B10423637400232374C4
:100DA000012070BDFFF7E5FEE0734878FFF7E1FE34
:100DB00060738878FFF7DDFEA073D4E72046FFF765
:100DC000D1FE431C0DD085420BD900F5A83101F5A9
:100DD000C0712046FFF74FFF18B1042326746374D7
:100DE000DEE7012300206374207470BD8F5F010073
:100DF00038B50446A8B10268536823F0080353606D
:100E0000FFF7C4F9054623685B681B0701D500207E
:100E100038BDFFF7BBF9401BB0F57A7FF3D903204B
:100E200038BD012038BD000010B5044670B1437CC8
:100E300003F0FF0213B9027400F0D8FF022320462A
:100E40006374FFF7D5FF18B104236374012010BD4C
:100E50002046FFF7CDFE0028F6D12268A06853682F
:100E600023F007035360174A18B1116B21F00101F9
:100E70001163D36A23F460730343D3626068431C35
:100E800005D10120FFF7E6FD0028DDD001382268FA
:100E9000936823F00F0343EA10439360D36880B252
:100EA0001B0C1B041843D0602046FFF7B8FE01233B
:100EB00010B104226274C9E7E0736373A3736374AF
:100EC00010BD00BF006C0040704703680020DA6866
:100ED00042F00102DA601A6842F001021A607047BB
:100EE0007047704770477047036810B51A69044629
:100EF00091070ED5DA6892070BD56FF002021A61DE
:100F000001229B6902779B0777D0FFF7EAFF002356
:100F1000237723681A69500710D5DA6851070DD571
:100F20006FF004021A6102229B69227713F4407F5A
:100F3000204668D0FFF7D5FF0023237723681A697E
:100F400012070FD5DA6810070CD56FF008021A6186
:100F50000422DB692277990720465AD0FFF7C1FFA8
:100F60000023237723681A69D20610D5DA68D006E1
:100F70000DD56FF010021A610822DB69227713F495
:100F8000407F20464BD0FFF7ACFF00232377236838
:100F90001A69D10708D5DA68D20705D56FF00102C2
:100FA00020461A6100F0F0FE23681A69100608D581
:100FB000DA68110605D56FF0800220461A6100F04C
:100FC00088F823681A69520608D5DA68500605D5EC
:100FD0006FF0400220461A61FFF785FF23681A6907
:100FE000910622D5DA6892061FD56FF020022046BE
:100FF000BDE810401A6100F06BB8FFF771FF2046A2
:10100000FFF770FF83E7FFF76BFF2046FFF76AFFEC
:1010100092E7FFF765FF2046FFF764FFA0E7FFF7C1
:101020005FFF2046FFF75EFFAFE710BD1A4A036877
:1010300090420AD0B0F1804F07D0A2F5943290428E
:1010400003D002F58062904215D14A6823F0700304
:101050001343114A90420AD0B0F1804F07D0A2F555
:101060009432904203D002F58062904203D1CA6864
:1010700023F4407313434A6923F08003134303604E
:101080008B68C3620B688362034B984204BF0B6991
:101090000363012343617047002C014010B50446EF
:1010A000A0B190F83D3003F0FF021BB980F83C205E
:1010B000FFF70AFF0223206884F83D30211DFFF767
:1010C000B5FF0123002084F83D3010BD012010BD84
:1010D0007047704708B500F093FB002008BD30B59D
:1010E000B0F9084085B0842C08BF0024028A18BFDC
:1010F00003340B4690E8220003A801900094284690
:1011000000F0AEFA012814BF0020039805B030BDEE
:1011100008B5002808BF012000F0C0FC002008BD71
:1011200000F1080343604FF0FF32C3600361002306
:1011300082600360704700230361704743689A68C8
:101140004B608A609A685160996003680861013356
:10115000036070470A6830B5531C0AD103695A68A6
:101160004A6091608B6059600368086101330360D5
:1011700030BD00F108035C682568AA42EFD323461E
:10118000F9E74168826803698A608268516059683A
:10119000884208BF5A60002202611868013818604E
:1011A000704700000A4B1B68013308D04FF0500312
:1011B00083F31188BFF36F8FBFF34F8FFEE74FF0BC
:1011C000500383F31188BFF36F8FBFF34F8FFEE798
:1011D0000400002006480068006880F3088862B6B2
:1011E00061B6BFF34F8FBFF36F8F00DF00BF00000A
:1011F00008ED00E04FF0807340F8043C054B21F00F
:10120000010140F8081C40F80C3C40F8202C403804
:10121000704700BFA511000800000000000000009A
:10122000074B19680868B0E8F00F80F30988BFF32E
:101230006F8F4FF0000080F311884EF00D0E704755
:10124000480C00204FF0500383F31188BFF36F8FD9
:10125000BFF34F8F0A4A13680133012B13600DD17E
:10126000084B1B6813F0FF0F08D04FF0500383F3B7
:101270001188BFF36F8FBFF34F8FFEE7704700BF3A
:101280000400002004ED00E0084A136843B94FF061
:10129000500383F31188BFF36F8FBFF34F8FFEE7C7
:1012A000013B13600BB983F31188704704000020E1
:1012B000EFF30980BFF36F8F0D4B1A6820E9F00F31
:1012C00010602DE908404FF0500080F3118800F0C5
:1012D00043FC4FF0000080F31188BDE80840196816
:1012E0000868B0E8F00F80F30988BFF36F8F70478C
:1012F000480C002008B54FF0500383F31188BFF36A
:101300006F8FBFF34F8F00F0BFFA18B14FF08052CC
:10131000024B1A60002383F3118808BD04ED00E03E
:101320004FF47A72054B1B68B3FBF2F3044A013B9E
:1013300013600722034B1A60704700BF08000020AB
:1013400014E000E010E000E013B51F4B00211A7814
:10135000D2B20192FF221A701B781C4ADBB28DF8C0
:1013600003309DF8033003F0500313700722184B2D
:101370001A609DF80300541E00061CD401B11A60C7
:101380001A68120202F4E0621A60019B0E4ADBB294
:101390001370104B1A6842F470021A601A6842F017
:1013A00070421A60FFF7BCFF00220B4B1A60FFF778
:1013B00011FFFFF7F7FE9DF8032001215200D2B282
:1013C0008DF803202246D4E700E400E02800002046
:1013D0002C00002020ED00E00400002010B50F4B91
:1013E0001A68824218D35C681919884201BF4168A3
:1013F000184609195960446801198A4207D10849F9
:1014000009688A421FBF51681268091941609842F1
:10141000026018BF186010BD1346E1E7400C0020C1
:10142000300000202DE9F041044600F025FA3E4945
:101430003E4D0B680BBB3E4A56071DBFD01D20F02A
:10144000070002F540634FF440631CBF02461B1ABD
:1014500000201344374E083B23F0070370603260CE
:10146000586018600B60981A1360334B5060186016
:10147000324B18604FF000432B602F68274216D183
:10148000002C40D004F1080358071CBF23F00703C9
:10149000083363B1294A16689046B34207D8254AF3
:1014A00015686868834204D809688D4207D1002412
:1014B00029E02C68002CF7D02A462546F1E7296858
:1014C00014681160C21A102A0FD9E818410708D011
:1014D0004FF0500383F31188BFF36F8FBFF34F8F2B
:1014E000FEE742606B60FFF779FF6B681249F61AFE
:1014F0001F4300230868C8F80060864238BF0E60AA
:1015000008346F602B6000F051FA630708D04FF089
:10151000500383F31188BFF36F8FBFF34F8FFEE744
:101520002046BDE8F08100BF30000020340C0020D0
:1015300034000020400C00203C0C0020380C00201F
:1015400010B5044670B3184A50F8043C12681342B0
:1015500008D14FF0500383F31188BFF36F8FBFF3AF
:101560004F8FFEE750F8081C41B14FF0500383F352
:101570001188BFF36F8FBFF34F8FFEE723EA02039B
:1015800040F8043C00F078F9084A54F8043C11682B
:10159000A4F108000B441360FFF720FFBDE81040E2
:1015A00000F004BA10BD00BF340C0020380C00203D
:1015B000064A13681968064B19B94FF0FF321A60D2
:1015C00070471268D268D2685268F8E74C0C002065
:1015D000240D0020F8B51B4B1B4E1D6804463068D7
:1015E0000F460430FFF7CDFD334640B90120316886
:1015F000164EC96A3268884022EA00023260621CD4
:1016000007D137B1196812480431BDE8F840FFF737
:1016100095BD2C441A68A542546007D90D4A10683C
:101620001968BDE8F8400431FFF794BD0A4A106814
:1016300019680431FFF78EFD084B1A68944238BFD1
:101640001C60F8BD6C0D0020480C0020F40C00203C
:10165000440D0020500C00204C0C0020240D0020D4
:101660002DE9F84F4FEA820A804650460F469946C8
:101670000B9EFFF7D7FE0546002800F09680542009
:10168000FFF7D0FE0446002800F08C80AAF1040A7F
:10169000056355447B1E25F0070A00F134020F371D
:1016A000597802F8011B13F8011F09B1BB42F7D1A9
:1016B0000A9D4FF0000B062D28BF0625271DE56269
:1016C0006564384684F843B0C4F848B0FFF733FD8A
:1016D000C5F1070504F11800FFF72DFDC4F84CB063
:1016E0002461A561646284F850B04A464146504680
:1016F000FFF780FD206006B13460FFF7A3FD324B99
:10170000324E1A68DFF8F08001321A603568002D19
:101710004ED134601B68012B1DD108EB0500143538
:10172000FFF7FEFC8C2DF8D1DFF8D090284D48460D
:10173000FFF7F6FC2846FFF7F3FC2648FFF7F0FC1E
:101740002548FFF7EDFC2548FFF7EAFC244BC3F8DA
:101750000090244B1D600125234A24491368086822
:1017600001331360E26A05FA02F3034314200B60AD
:1017700000FB02803946FFF7E1FCFFF785FD1C4BBB
:101780001B6863B13368DA6AE36A9A4207D24FF0A2
:101790008052184B1A60BFF34F8FBFF36F8F2846EC
:1017A000BDE8F88F2846FFF7CBFE4FF0FF35F6E790
:1017B0000F4B1B68002BCED13368DA6AE36A9A427A
:1017C00098BF3460C7E700BFE00C0020480C002041
:1017D0000C0D00202C0D0020580D0020440D002081
:1017E0004C0C0020500C0020F00C0020F40C0020C9
:1017F000400D002004ED00E0540C0020F80C002007
:1018000013B50024164B00940193802223461549FA
:101810001548FFF725FF012814D14FF0500383F33B
:101820001188BFF36F8FBFF34F8F4FF0FF320F4B15
:101830001A600F4B18600F4B1C6002B0BDE81040DF
:10184000FFF782BD013008D14FF0500383F31188B8
:10185000BFF36F8FBFF34F8FFEE702B010BD00BF25
:10186000200D0020F41F0008E51A0008240D0020B8
:10187000400D00206C0D0020024A136801331360F4
:10188000704700BFEC0C00202DE9F84F3C4B1B6863
:10189000002B53D13B4B1C6801341C60BCB93A4B44
:1018A0001A68126842B14FF0500383F31188BFF3F6
:1018B0006F8FBFF34F8FFEE7344A196810681860C6
:1018C0001160334A136801331360FFF771FE314D25
:1018D0004FF0000B2B68304F9C423ED3DFF8A880BE
:1018E000DFF8C490D8F80020126872BB4FF0FF32C6
:1018F0002A6032E006F1040A5046FFF742FCB16A62
:1019000019B106F11800FFF73CFC01224FF0140E4C
:10191000F06AD9F8003002FA00F119431F4BC9F8F8
:1019200000100EFB00305146FFF708FC3868F16AE2
:10193000C26A914228BF4FF0010BD3E7184A4FF01B
:10194000000B13680133136011E0D8F80020D2684F
:10195000D66871688C42CDD229603A680F4BD16A43
:1019600014224A439A58022A28BF4FF0010B0D4A0D
:101970001268002A18BF4FF0010B5846BDE8F88FD7
:10198000EC0C00206C0D00204C0C0020500C0020B2
:10199000280D0020240D0020480C0020540C0020AD
:1019A000E80C0020700D0020F40C00202DE9F84315
:1019B000314C236843B94FF0500383F31188BFF3D0
:1019C0006F8FBFF34F8FFEE7FFF73CFC2368013BAF
:1019D000236024682CB10024FFF756FC2046BDE8A4
:1019E000F883264B1B68002BF5D0DFF8A890244F16
:1019F000DFF8A480D9F80030E3B90CB1FFF7D8FDC7
:101A0000204D2C6844B101271F4EFFF73DFF00B168
:101A10003760013CF9D12C601B4B1B68002BDAD0DE
:101A20004FF08052194B1A60BFF34F8FBFF36F8F87
:101A30000124D1E7D9F80C300125DC68261D04F11A
:101A40001800FFF79EFB3046FFF79BFB1420E26A6D
:101A5000396805FA02F30B4300FB028031463B6014
:101A6000FFF76CFB0A4BE26A1B68DB6A9A4224BFF1
:101A7000054B1D60BEE700BFEC0C0020E00C002011
:101A8000F40C0020E80C0020700D002004ED00E0B4
:101A9000480C00202C0D0020540C002008B540B943
:101AA0004FF080520D4B1A60BFF34F8FBFF36F8F13
:101AB00008BD0B4B196841B14FF0500383F31188F7
:101AC000BFF36F8FBFF34F8FFEE7FFF7D5FEFFF732
:101AD00081FDFFF76BFF0028E2D008BD04ED00E0B8
:101AE000EC0C002008B5174E174C236863B9174B50
:101AF0001B68012BF8D94FF08052154B1A60BFF3C9
:101B00004F8FBFF36F8FEFE7FFF7B6FE3568FFF734
:101B10004DFF002DE9D0FFF795FBF368DD68281D28
:101B2000FFF72FFB0B4A1368013B13602368013B4F
:101B30002360FFF7A9FB286BFFF702FD2846FFF79C
:101B4000FFFCD2E7580D0020E40C0020540C0020CC
:101B500004ED00E0E00C0020174B10B51A68174B9D
:101B600012B101221A6010BD1A60154B1B68B3FA3E
:101B700083F31422DBB2C3F11F035A4311498C587B
:101B8000881844B94FF0500383F31188BFF36F8F67
:101B9000BFF34F8FFEE74468083264680A449442FA
:101BA00008BF6268446008BF4260142202FB03134E
:101BB0005B68DA68044BD5E7EC0C0020700D002060
:101BC000F40C0020540C0020480C002010B50D4CE3
:101BD0004FF4FA60FFF762FF00224FF400512046F5
:101BE000FEF70CFC4FF4FA60FFF758FF2046012285
:101BF0004FF40051FEF702FC4FF4FA60FFF74EFF7E
:101C0000E6E700BF0010014008B50120FFF780FAA9
:101C1000FBE7282230B595B00DEB0200002100F063
:101C2000BBF9142210250DEB0200002100F0B4F9DD
:101C30002A46002101A800F0AFF901240A230AA8CE
:101C40000A930E940F951094FEF7E4FB00210F23E6
:101C500005A805930691079108910991FEF7A2FD49
:101C60004FF4007301A801940293FEF77BFE15B0B8
:101C700030BD000080B58CB0FEF76AFAFFF7C9FFEF
:101C80001022002107A800F087F9374B4FF40051CC
:101C90009A69364842F010029A619A69002402F06B
:101CA00010020492049A9A69012642F020029A6175
:101CB0009A69022702F020020592059A9A692C4D32
:101CC00042F004029A619B69002203F00403069328
:101CD000069BFEF793FB4FF4005307A92348079395
:101CE000089609940A97FEF7A9FA4FF480734FF00B
:101CF000FF322049284685E80E00ADF80C408DF8EB
:101D00000E400794FFF790F8324603A928468DF855
:101D10000C408DF80D408DF80E40FEF7C0FF3246A6
:101D20008DF81C608DF81D608DF81E6007A928468F
:101D3000114E8DF81F4007ADFFF702F823468022B1
:101D40000E49019400970E48FFF78AFC0FCE0FC58D
:101D50003368214607A82B60FFF7C1F9094B1860CB
:101D6000FFF7B8F9FEE700BF001002400010014085
:101D70007C0D002000280040E01F0008F91F00082B
:101D8000CD1B0008780D00200268034B9A4201D158
:101D9000FEF7F0B9704700BF002C0140114B07B5AA
:101DA0009A690F2142F001029A619A696FF001006D
:101DB00002F001020092009ADA6942F08052DA6180
:101DC000DB69002203F080530193019BFEF7F6F9D3
:101DD000054A536823F0E06343F00073536003B097
:101DE0005DF804FB001002400000014007B50B4BFA
:101DF00002689A420ED1FEF707FB094BDA6942F0FE
:101E00000062DA610122DB6903F000630193019B48
:101E1000044B1A6003B05DF804FB00BF00280040CB
:101E2000001002403C04424210B5014688B0002236
:101E30001920FEF7C3F91920FEF7F4F9144B01A994
:101E40009A6903A842F400629A619B69114C03F4F9
:101E500000630293029BFEF767FDFEF755FD0E4BF4
:101E6000236040F2E733E3600C4BB0FBF3F0002358
:101E70000138606020462361A360FFF70FF920B9A5
:101E80002046FFF722F808B010BD0120FBE700BF95
:101E900000100240900D0020002C014040420F0035
:101EA0007047FEE7FEE7FEE7FEE770470148FFF7F1
:101EB0001BB800BF900D00200F4B1A6842F00102C2
:101EC0001A6059680D4A0A405A601A6822F08472F2
:101ED00022F480321A601A6822F480221A605A684A
:101EE00022F4FE025A604FF41F029A604FF0006223
:101EF000034B9A60704700BF001002400000FFF8DB
:101F000000ED00E0002103E00B4B5B58435004312F
:101F10000A480B4B42189A42F6D30A4A02E00023C1
:101F200042F8043B084B9A42F9D3FFF7C5FF00F093
:101F30000FF8FFF79FFE70473020000800000020D8
:101F40000C0000200C000020D00D0020FEE7000057
:101F500070B500250C4E0D4CA41BA410A54209D150
:101F600000F022F800250A4E0A4CA41BA410A5423A
:101F700005D170BD56F8253098470135EEE756F883
:101F8000253098470135F2E728200008282000086E
:101F9000282000082C20000803460244934200D168
:101FA000704703F8011BF9E7F8B500BFF8BC08BC9F
:101FB0009E467047F8B500BFF8BC08BC9E46704707
:101FC00002030405060708090A0B0C0D0E0F10107A
:101FD00002030405060708090A0B0C0D0E0F10106A
:101FE00001200008091C000800000000000000009B
:101FF0008000000049444C45006C65645F73657463
:102000000064656661756C745461736B0000000058
:102010000000000000010203040607080900000098
:082020000001020304000000AE
:042028003501000876
:04202C001101000896
:0C20300001000000AAAAAAAA00A24A040B
:0400000508001F05CB
:00000001FF
